:040000000128F52FAF
:100CEE000334033440019A141A154130F000EE30EB
:100CFE00890B7F2EF00B7F2E003240019A101A11B5
:100D0E004130F000EE30890B8A2EF00B8A2E003225
:100D1E000800F401F501701C952E962E9A2E72087D
:100D2E00F4077308F53D0130F235F30D890B9B2E58
:100D3E000130F136F00C890BA02E70087104031DE2
:100D4E00A92EAA2E922E7508F1007408F000080044
:100D5E007D08031DB32EB42EC22E40012108F600CD
:100D6E000330873108278631F601F60A04308731C1
:100D7E0008278631CF2EF601F60A03308731082771
:100D8E00863140012008F60004308731082786316D
:100D9E00080055307D018F00AA308F000F100B30E8
:100DAE007E01A3000C30A40055307D018F00AA30C7
:100DBE008F000F1440019416141412159410141170
:100DCE00941114127E0138114E10CE1239154F1493
:100DDE00CF168030460196009501940180309A001E
:100DEE0099019801603045018E00013090008F010D
:100DFE009101FF308D008C018E1740019A141A114B
:100E0E000800F9007608F700F8017708F000780876
:100E1E00F1005530F2000030F30086319026873114
:100E2E007108FB007008FA0003307906031D202FAD
:100E3E00212F362F7B08F8007A08F700F836F70CCA
:100E4E00F836F70C7708460195007A080339F70053
:100E5E000630F735890B302F77089400502F043069
:100E6E007906031D3B2F3C2F502F7B08F8007A0884
:100E7E00F700F836F70CF836F70C770846019900AC
:100E8E007A080339F7000630F735890B4B2F7708B0
:100E9E00980008008631D026873186317926873131
:100EAE0086317926873186317926873140018E1A2F
:100EBE00612F622F892F1130FC003A30890B652F7C
:100ECE00FC0B652F003240018E1A6E2F6F2F892F6B
:100EDE007D080319732F752F0130762F0030FD001A
:100EEE007D0803197B2F7E2F40019A14802F40011D
:100EFE009A107D0C031C1A1103181A158E1E882FBA
:100F0E00892F852F0E188C2F8D2FB92F1130FC00A5
:100F1E003A30890B902FFC0B902F003240010E18A7
:100F2E00992F9A2FB92F7D08031D9E2F9F2FA82F23
:100F3E00033021020318A42FA52FA82F0130A107DB
:100F4E00B52F7D03031DAC2FAD2FB52F033020021F
:100F5E000318B22FB32FB52F0130A0070E1CB82FD8
:100F6E00B92FB52F0C19BC2FBD2FE92F1130FC0056
:100F7E003A30890BC02FFC0BC02F003240010C19E8
:100F8E00C92FCA2FE92F7D08031DCE2FCF2FD82FA3
:100F9E0002302102031CD42FD52FD82F0130A102ED
:100FAE00E52F7D03031DDC2FDD2FE52F0230200200
:100FBE00031CE22FE32FE52F0130A0020C1DE82FBA
:100FCE00E92FE52F8631AF2687310430FC003E3005
:100FDE00890BEF2FFC0BEF2F5D2F01288631772623
:100FEE008731A000863178268731A100FD014001AE
:020FFE00512F71
:020000040001F9
:06000E00EC3FFF3F9F3FA5
:00000001FF
