:040000000128F52FAF
:100CE400053405347D08031D782E792E812E4001AC
:100CF4002108F60003308631F7268631882E40011C
:100D04002008F60004308631F726863108004001B9
:100D14009A141A154130F000EE30890B8F2EF00B27
:100D24008F2E003240019A101A114130F000EE303B
:100D3400890B9A2EF00B9A2E00320800F401F5016B
:100D4400701CA52EA62EAA2E7208F4077308F53D72
:100D54000130F235F30D890BAB2E0130F136F00C76
:100D6400890BB02E70087104031DB92EBA2EA22E61
:100D74007508F1007408F000080055307D018F00FB
:100D8400AA308F000F100B307E01A3000C30A4009A
:100D940055307D018F00AA308F000F144001941646
:100DA4001414121594101411941114127E01381194
:100DB4004E10CE1239154F14CF16803046019600CE
:100DC4009501940180309A009901980140304501C1
:100DD4008E00013090008F019101FF308D008C0155
:100DE4008E1740019A101A110800F9007608031DA5
:100DF400FC2EFD2E002FFA01FB01122F7608F700BE
:100E0400F8017708F0007808F1003330F200003080
:100E1400F3008631A02686317108FB007008FA00C1
:100E240003307906031D172F182F2D2F7B08F80088
:100E34007A08F700F836F70CF836F70C770846010D
:100E440095007A080339F7000630F735890B272F08
:100E540077089400472F04307906031D322F332F6F
:100E6400472F7B08F8007A08F700F836F70CF836B5
:100E7400F70C7708460199007A080339F700063021
:100E8400F735890B422F7708980008008631BF2672
:100E940087318631892687318631892687318631A3
:100EA40089268731FD018631742687310130FD00A2
:100EB40086317426873140019A1440018E1A632FBB
:100EC400642F8B2F0A30FC00BC30890B672FFC0B7E
:100ED400672F003240018E1A702F712F8B2F7D08DF
:100EE4000319752F772F0130782F0030FD007D0C0A
:100EF400031C9A1003189A147D080319822F852F56
:100F040040011A15872F40011A118E1E8A2F8B2F2C
:100F1400872F0E188E2F8F2FBB2F0A30FC00BC306A
:100F2400890B922FFC0B922F003240010E189B2F3D
:100F34009C2FBB2F7D08031DA02FA12FAA2F0530A6
:100F440021020318A62FA72FAA2F0130A107B72F1C
:100F54007D03031DAE2FAF2FB72F053020020318DA
:100F6400B42FB52FB72F0130A0070E1CBA2FBB2FFB
:100F7400B72F0C19BE2FBF2FE92F0A30FC00BC304D
:100F8400890BC22FFC0BC22F003240010C19CB2F4E
:100F9400CC2FE92F7D08031DD02FD12FD92F210865
:100FA4000319D52FD62FD92F0130A102E52F7D03A8
:100FB400031DDD2FDE2FE52F20080319E22FE32F79
:100FC400E52F0130A0020C1DE82FE92FE52F863113
:100FD400742687310430FC003E30890BEF2FFC0B64
:100FE400EF2F5F2F0128863172268731A0008631CA
:0C0FF40073268731A100FD014001482F49
:020000040001F9
:06000E00EC3FFF3F9F3FA5
:00000001FF
