:040000000128F52FAF
:100CD6000534053440019A141A154130F000EE30FF
:100CE600890B732EF00B732E003240019A101A11E5
:100CF6004130F000EE30890B7E2EF00B7E2E003256
:100D060008007D08031D882E892E912E400121089A
:100D1600F60003308631F52686319D2E7D03031DB0
:100D2600952E962E9D2E40012008F6000430863121
:100D3600F52686310800F401F501701CA32EA42EB9
:100D4600A82E7208F4077308F53D0130F235F30D4D
:100D5600890BA92E0130F136F00C890BAE2E7008E6
:100D66007104031DB72EB82EA02E7508F100740865
:100D7600F000080055307D018F00AA308F000F105B
:100D86000B307E01A3000C30A40055307D018F008E
:100D9600AA308F000F1440019416141412159410E3
:100DA6001411941114127E0138114E10CE123915F9
:100DB6004F14CF168030460196009501940180307D
:100DC6009A0099019801403045018E00013090004B
:100DD6008F019101FF308D008C018E1740019A1012
:100DE6001A110800F9007608031DFA2EFB2EFE2EB6
:100DF600FA01FB01102F7608F700F8017708F000DA
:100E06007808F1003330F2000030F30086319E2678
:100E160086317108FB007008FA0003307906031D5D
:100E2600152F162F2B2F7B08F8007A08F700F836B7
:100E3600F70CF836F70C7708460195007A0803395F
:100E4600F7000630F735890B252F77089400452FD4
:100E560004307906031D302F312F452F7B08F8000B
:100E66007A08F700F836F70CF836F70C77084601DB
:100E760099007A080339F7000630F735890B402FB9
:100E86007708980008008631BD26873186316D26A1
:100E9600873186316D26873186316D26873101305F
:100EA600FD00863184268731FD018631842687310F
:100EB60040011A150130FD0040018E1A632F642F80
:100EC6008B2F0A30FC00BC30890B672FFC0B672F79
:100ED600003240018E1A702F712F8B2F7D08031957
:100EE600752F772F0130782F0030FD007D0803190C
:100EF6007D2F802F40019A14822F40019A107D0C7D
:100F0600031C1A1103181A158E1E8A2F8B2F872F72
:100F16000E188E2F8F2FBB2F0A30FC00BC30890B8A
:100F2600922FFC0B922F003240010E189B2F9C2F04
:100F3600BB2F7D08031DA02FA12FAA2F053021024C
:100F46000318A62FA72FAA2F0130A107B72F7D03BD
:100F5600031DAE2FAF2FB72F053020020318B42F75
:100F6600B52FB72F0130A0070E1CBA2FBB2FB72FF6
:100F76000C19BE2FBF2FE92F0A30FC00BC30890B9D
:100F8600C22FFC0BC22F003240010C19CB2FCC2FE5
:100F9600E92F7D08031DD02FD12FD92F2108031942
:100FA600D52FD62FD92F0130A102E52F7D03031DA2
:100FB600DD2FDE2FE52F20080319E22FE32FE52F83
:100FC6000130A0020C1DE82FE92FE52F863184267B
:100FD60087310430FC003E30890BEF2FFC0BEF2FDE
:100FE6005F2F012886316B268731A00086316C265B
:0A0FF6008731A100FD014001462FE4
:020000040001F9
:06000E00EC3FFF3F9F3FA5
:00000001FF
